{
	"_format": "hh-sol-artifact-1",
	"contractName": "MyEpicGame",
	"sourceName": "contracts/MyEpicGame.sol",
	"abi": [
		{
			"inputs": [
				{
					"components": [
						{
							"internalType": "string",
							"name": "name",
							"type": "string"
						},
						{
							"internalType": "string",
							"name": "imageURI",
							"type": "string"
						},
						{
							"internalType": "string",
							"name": "attackImageURI",
							"type": "string"
						},
						{
							"internalType": "string",
							"name": "eatImageURI",
							"type": "string"
						},
						{
							"internalType": "string",
							"name": "loseImageURI",
							"type": "string"
						},
						{
							"internalType": "uint256",
							"name": "hp",
							"type": "uint256"
						},
						{
							"internalType": "uint256",
							"name": "attackDamage",
							"type": "uint256"
						},
						{
							"internalType": "uint256",
							"name": "healAmount",
							"type": "uint256"
						},
						{
							"internalType": "uint256",
							"name": "criticalChance",
							"type": "uint256"
						}
					],
					"internalType": "struct MyEpicGame.ChAtt[]",
					"name": "characterAttrs",
					"type": "tuple[]"
				},
				{
					"internalType": "string",
					"name": "bossName",
					"type": "string"
				},
				{
					"internalType": "string",
					"name": "bossImageURI",
					"type": "string"
				},
				{
					"internalType": "string",
					"name": "bossAttackImageURI",
					"type": "string"
				},
				{
					"internalType": "string",
					"name": "bossEatImageURI",
					"type": "string"
				},
				{
					"internalType": "string",
					"name": "bossLoseImageURI",
					"type": "string"
				},
				{
					"internalType": "uint256",
					"name": "bossHp",
					"type": "uint256"
				},
				{
					"internalType": "uint256",
					"name": "bossAttackDamage",
					"type": "uint256"
				}
			],
			"stateMutability": "nonpayable",
			"type": "constructor"
		},
		{
			"anonymous": false,
			"inputs": [
				{
					"indexed": true,
					"internalType": "address",
					"name": "owner",
					"type": "address"
				},
				{
					"indexed": true,
					"internalType": "address",
					"name": "approved",
					"type": "address"
				},
				{
					"indexed": true,
					"internalType": "uint256",
					"name": "tokenId",
					"type": "uint256"
				}
			],
			"name": "Approval",
			"type": "event"
		},
		{
			"anonymous": false,
			"inputs": [
				{
					"indexed": true,
					"internalType": "address",
					"name": "owner",
					"type": "address"
				},
				{
					"indexed": true,
					"internalType": "address",
					"name": "operator",
					"type": "address"
				},
				{
					"indexed": false,
					"internalType": "bool",
					"name": "approved",
					"type": "bool"
				}
			],
			"name": "ApprovalForAll",
			"type": "event"
		},
		{
			"anonymous": false,
			"inputs": [
				{
					"indexed": false,
					"internalType": "uint256",
					"name": "newBossHp",
					"type": "uint256"
				},
				{
					"indexed": false,
					"internalType": "uint256",
					"name": "newPlayerHp",
					"type": "uint256"
				},
				{
					"indexed": false,
					"internalType": "uint256",
					"name": "characterIndex",
					"type": "uint256"
				},
				{
					"indexed": false,
					"internalType": "bool",
					"name": "isCritical",
					"type": "bool"
				}
			],
			"name": "AttackComplete",
			"type": "event"
		},
		{
			"anonymous": false,
			"inputs": [
				{
					"indexed": false,
					"internalType": "address",
					"name": "sender",
					"type": "address"
				},
				{
					"indexed": false,
					"internalType": "uint256",
					"name": "tokenId",
					"type": "uint256"
				},
				{
					"indexed": false,
					"internalType": "uint256",
					"name": "defaultCharacterIndex",
					"type": "uint256"
				}
			],
			"name": "CharacterNFTMinted",
			"type": "event"
		},
		{
			"anonymous": false,
			"inputs": [
				{
					"indexed": true,
					"internalType": "address",
					"name": "from",
					"type": "address"
				},
				{
					"indexed": true,
					"internalType": "address",
					"name": "to",
					"type": "address"
				},
				{
					"indexed": true,
					"internalType": "uint256",
					"name": "tokenId",
					"type": "uint256"
				}
			],
			"name": "Transfer",
			"type": "event"
		},
		{
			"inputs": [
				{
					"internalType": "address",
					"name": "to",
					"type": "address"
				},
				{
					"internalType": "uint256",
					"name": "tokenId",
					"type": "uint256"
				}
			],
			"name": "approve",
			"outputs": [],
			"stateMutability": "nonpayable",
			"type": "function"
		},
		{
			"inputs": [],
			"name": "attackBoss",
			"outputs": [],
			"stateMutability": "nonpayable",
			"type": "function"
		},
		{
			"inputs": [
				{
					"internalType": "address",
					"name": "owner",
					"type": "address"
				}
			],
			"name": "balanceOf",
			"outputs": [
				{
					"internalType": "uint256",
					"name": "",
					"type": "uint256"
				}
			],
			"stateMutability": "view",
			"type": "function"
		},
		{
			"inputs": [],
			"name": "bigBoss",
			"outputs": [
				{
					"internalType": "string",
					"name": "name",
					"type": "string"
				},
				{
					"internalType": "string",
					"name": "imageURI",
					"type": "string"
				},
				{
					"internalType": "string",
					"name": "attackImageURI",
					"type": "string"
				},
				{
					"internalType": "string",
					"name": "eatImageURI",
					"type": "string"
				},
				{
					"internalType": "string",
					"name": "loseImageURI",
					"type": "string"
				},
				{
					"internalType": "uint256",
					"name": "hp",
					"type": "uint256"
				},
				{
					"internalType": "uint256",
					"name": "maxHp",
					"type": "uint256"
				},
				{
					"internalType": "uint256",
					"name": "attackDamage",
					"type": "uint256"
				}
			],
			"stateMutability": "view",
			"type": "function"
		},
		{
			"inputs": [],
			"name": "getAllCharacters",
			"outputs": [
				{
					"components": [
						{
							"internalType": "uint256",
							"name": "characterIndex",
							"type": "uint256"
						},
						{
							"internalType": "string",
							"name": "name",
							"type": "string"
						},
						{
							"internalType": "string",
							"name": "imageURI",
							"type": "string"
						},
						{
							"internalType": "string",
							"name": "attackImageURI",
							"type": "string"
						},
						{
							"internalType": "string",
							"name": "eatImageURI",
							"type": "string"
						},
						{
							"internalType": "string",
							"name": "loseImageURI",
							"type": "string"
						},
						{
							"internalType": "uint256",
							"name": "hp",
							"type": "uint256"
						},
						{
							"internalType": "uint256",
							"name": "maxHp",
							"type": "uint256"
						},
						{
							"internalType": "uint256",
							"name": "attackDamage",
							"type": "uint256"
						},
						{
							"internalType": "uint256",
							"name": "healAmount",
							"type": "uint256"
						},
						{
							"internalType": "uint256",
							"name": "criticalChance",
							"type": "uint256"
						}
					],
					"internalType": "struct MyEpicGame.CharacterAttributes[]",
					"name": "",
					"type": "tuple[]"
				}
			],
			"stateMutability": "view",
			"type": "function"
		},
		{
			"inputs": [],
			"name": "getAllDefaultChars",
			"outputs": [
				{
					"components": [
						{
							"internalType": "uint256",
							"name": "characterIndex",
							"type": "uint256"
						},
						{
							"internalType": "string",
							"name": "name",
							"type": "string"
						},
						{
							"internalType": "string",
							"name": "imageURI",
							"type": "string"
						},
						{
							"internalType": "string",
							"name": "attackImageURI",
							"type": "string"
						},
						{
							"internalType": "string",
							"name": "eatImageURI",
							"type": "string"
						},
						{
							"internalType": "string",
							"name": "loseImageURI",
							"type": "string"
						},
						{
							"internalType": "uint256",
							"name": "hp",
							"type": "uint256"
						},
						{
							"internalType": "uint256",
							"name": "maxHp",
							"type": "uint256"
						},
						{
							"internalType": "uint256",
							"name": "attackDamage",
							"type": "uint256"
						},
						{
							"internalType": "uint256",
							"name": "healAmount",
							"type": "uint256"
						},
						{
							"internalType": "uint256",
							"name": "criticalChance",
							"type": "uint256"
						}
					],
					"internalType": "struct MyEpicGame.CharacterAttributes[]",
					"name": "",
					"type": "tuple[]"
				}
			],
			"stateMutability": "view",
			"type": "function"
		},
		{
			"inputs": [
				{
					"internalType": "uint256",
					"name": "tokenId",
					"type": "uint256"
				}
			],
			"name": "getApproved",
			"outputs": [
				{
					"internalType": "address",
					"name": "",
					"type": "address"
				}
			],
			"stateMutability": "view",
			"type": "function"
		},
		{
			"inputs": [],
			"name": "getBigBoss",
			"outputs": [
				{
					"components": [
						{
							"internalType": "string",
							"name": "name",
							"type": "string"
						},
						{
							"internalType": "string",
							"name": "imageURI",
							"type": "string"
						},
						{
							"internalType": "string",
							"name": "attackImageURI",
							"type": "string"
						},
						{
							"internalType": "string",
							"name": "eatImageURI",
							"type": "string"
						},
						{
							"internalType": "string",
							"name": "loseImageURI",
							"type": "string"
						},
						{
							"internalType": "uint256",
							"name": "hp",
							"type": "uint256"
						},
						{
							"internalType": "uint256",
							"name": "maxHp",
							"type": "uint256"
						},
						{
							"internalType": "uint256",
							"name": "attackDamage",
							"type": "uint256"
						}
					],
					"internalType": "struct MyEpicGame.BigBoss",
					"name": "",
					"type": "tuple"
				}
			],
			"stateMutability": "view",
			"type": "function"
		},
		{
			"inputs": [],
			"name": "getCharacterNFT",
			"outputs": [
				{
					"components": [
						{
							"internalType": "uint256",
							"name": "characterIndex",
							"type": "uint256"
						},
						{
							"internalType": "string",
							"name": "name",
							"type": "string"
						},
						{
							"internalType": "string",
							"name": "imageURI",
							"type": "string"
						},
						{
							"internalType": "string",
							"name": "attackImageURI",
							"type": "string"
						},
						{
							"internalType": "string",
							"name": "eatImageURI",
							"type": "string"
						},
						{
							"internalType": "string",
							"name": "loseImageURI",
							"type": "string"
						},
						{
							"internalType": "uint256",
							"name": "hp",
							"type": "uint256"
						},
						{
							"internalType": "uint256",
							"name": "maxHp",
							"type": "uint256"
						},
						{
							"internalType": "uint256",
							"name": "attackDamage",
							"type": "uint256"
						},
						{
							"internalType": "uint256",
							"name": "healAmount",
							"type": "uint256"
						},
						{
							"internalType": "uint256",
							"name": "criticalChance",
							"type": "uint256"
						}
					],
					"internalType": "struct MyEpicGame.CharacterAttributes",
					"name": "",
					"type": "tuple"
				}
			],
			"stateMutability": "view",
			"type": "function"
		},
		{
			"inputs": [],
			"name": "heal",
			"outputs": [],
			"stateMutability": "nonpayable",
			"type": "function"
		},
		{
			"inputs": [
				{
					"internalType": "address",
					"name": "owner",
					"type": "address"
				},
				{
					"internalType": "address",
					"name": "operator",
					"type": "address"
				}
			],
			"name": "isApprovedForAll",
			"outputs": [
				{
					"internalType": "bool",
					"name": "",
					"type": "bool"
				}
			],
			"stateMutability": "view",
			"type": "function"
		},
		{
			"inputs": [
				{
					"internalType": "uint256",
					"name": "_chIdx",
					"type": "uint256"
				}
			],
			"name": "mintCharacterNFT",
			"outputs": [],
			"stateMutability": "nonpayable",
			"type": "function"
		},
		{
			"inputs": [],
			"name": "name",
			"outputs": [
				{
					"internalType": "string",
					"name": "",
					"type": "string"
				}
			],
			"stateMutability": "view",
			"type": "function"
		},
		{
			"inputs": [
				{
					"internalType": "uint256",
					"name": "",
					"type": "uint256"
				}
			],
			"name": "nftHolderAttributes",
			"outputs": [
				{
					"internalType": "uint256",
					"name": "characterIndex",
					"type": "uint256"
				},
				{
					"internalType": "string",
					"name": "name",
					"type": "string"
				},
				{
					"internalType": "string",
					"name": "imageURI",
					"type": "string"
				},
				{
					"internalType": "string",
					"name": "attackImageURI",
					"type": "string"
				},
				{
					"internalType": "string",
					"name": "eatImageURI",
					"type": "string"
				},
				{
					"internalType": "string",
					"name": "loseImageURI",
					"type": "string"
				},
				{
					"internalType": "uint256",
					"name": "hp",
					"type": "uint256"
				},
				{
					"internalType": "uint256",
					"name": "maxHp",
					"type": "uint256"
				},
				{
					"internalType": "uint256",
					"name": "attackDamage",
					"type": "uint256"
				},
				{
					"internalType": "uint256",
					"name": "healAmount",
					"type": "uint256"
				},
				{
					"internalType": "uint256",
					"name": "criticalChance",
					"type": "uint256"
				}
			],
			"stateMutability": "view",
			"type": "function"
		},
		{
			"inputs": [
				{
					"internalType": "address",
					"name": "",
					"type": "address"
				}
			],
			"name": "nftHolders",
			"outputs": [
				{
					"internalType": "uint256",
					"name": "",
					"type": "uint256"
				}
			],
			"stateMutability": "view",
			"type": "function"
		},
		{
			"inputs": [
				{
					"internalType": "uint256",
					"name": "tokenId",
					"type": "uint256"
				}
			],
			"name": "ownerOf",
			"outputs": [
				{
					"internalType": "address",
					"name": "",
					"type": "address"
				}
			],
			"stateMutability": "view",
			"type": "function"
		},
		{
			"inputs": [
				{
					"internalType": "address",
					"name": "from",
					"type": "address"
				},
				{
					"internalType": "address",
					"name": "to",
					"type": "address"
				},
				{
					"internalType": "uint256",
					"name": "tokenId",
					"type": "uint256"
				}
			],
			"name": "safeTransferFrom",
			"outputs": [],
			"stateMutability": "nonpayable",
			"type": "function"
		},
		{
			"inputs": [
				{
					"internalType": "address",
					"name": "from",
					"type": "address"
				},
				{
					"internalType": "address",
					"name": "to",
					"type": "address"
				},
				{
					"internalType": "uint256",
					"name": "tokenId",
					"type": "uint256"
				},
				{
					"internalType": "bytes",
					"name": "_data",
					"type": "bytes"
				}
			],
			"name": "safeTransferFrom",
			"outputs": [],
			"stateMutability": "nonpayable",
			"type": "function"
		},
		{
			"inputs": [
				{
					"internalType": "address",
					"name": "operator",
					"type": "address"
				},
				{
					"internalType": "bool",
					"name": "approved",
					"type": "bool"
				}
			],
			"name": "setApprovalForAll",
			"outputs": [],
			"stateMutability": "nonpayable",
			"type": "function"
		},
		{
			"inputs": [
				{
					"internalType": "bytes4",
					"name": "interfaceId",
					"type": "bytes4"
				}
			],
			"name": "supportsInterface",
			"outputs": [
				{
					"internalType": "bool",
					"name": "",
					"type": "bool"
				}
			],
			"stateMutability": "view",
			"type": "function"
		},
		{
			"inputs": [],
			"name": "symbol",
			"outputs": [
				{
					"internalType": "string",
					"name": "",
					"type": "string"
				}
			],
			"stateMutability": "view",
			"type": "function"
		},
		{
			"inputs": [
				{
					"internalType": "uint256",
					"name": "_tokenId",
					"type": "uint256"
				}
			],
			"name": "tokenURI",
			"outputs": [
				{
					"internalType": "string",
					"name": "",
					"type": "string"
				}
			],
			"stateMutability": "view",
			"type": "function"
		},
		{
			"inputs": [
				{
					"internalType": "address",
					"name": "from",
					"type": "address"
				},
				{
					"internalType": "address",
					"name": "to",
					"type": "address"
				},
				{
					"internalType": "uint256",
					"name": "tokenId",
					"type": "uint256"
				}
			],
			"name": "transferFrom",
			"outputs": [],
			"stateMutability": "nonpayable",
			"type": "function"
		}
	],
	"bytecode": "0x60806040523480156200001157600080fd5b506040516200722438038062007224833981810160405281019062000037919062000f4d565b6040518060400160405280600981526020017f436f6d70616e69657300000000000000000000000000000000000000000000008152506040518060400160405280600781526020017f436f6d70616e79000000000000000000000000000000000000000000000000008152508160009080519060200190620000bb92919062000c14565b508060019080519060200190620000d492919062000c14565b50505060405180610100016040528088815260200187815260200186815260200185815260200184815260200183815260200183815260200182815250600960008201518160000190805190602001906200013192919062000c14565b5060208201518160010190805190602001906200015092919062000c14565b5060408201518160020190805190602001906200016f92919062000c14565b5060608201518160030190805190602001906200018e92919062000c14565b506080820151816004019080519060200190620001ad92919062000c14565b5060a0820151816005015560c0820151816006015560e08201518160070155905050620003306040518060600160405280602a8152602001620071fa602a913960096000018054620001ff90620012a9565b80601f01602080910402602001604051908101604052809291908181526020018280546200022d90620012a9565b80156200027e5780601f1062000252576101008083540402835291602001916200027e565b820191906000526020600020905b8154815290600101906020018083116200026057829003601f168201915b5050505050600960050154600960010180546200029b90620012a9565b80601f0160208091040260200160405190810160405280929190818152602001828054620002c990620012a9565b80156200031a5780601f10620002ee576101008083540402835291602001916200031a565b820191906000526020600020905b815481529060010190602001808311620002fc57829003601f168201915b505050505062000b3f60201b620030891760201c565b60005b885181101562000b305760076040518061016001604052808381526020018b84815181106200038b577f4e487b7100000000000000000000000000000000000000000000000000000000600052603260045260246000fd5b60200260200101516000015181526020018b8481518110620003d6577f4e487b7100000000000000000000000000000000000000000000000000000000600052603260045260246000fd5b60200260200101516020015181526020018b848151811062000421577f4e487b7100000000000000000000000000000000000000000000000000000000600052603260045260246000fd5b60200260200101516040015181526020018b84815181106200046c577f4e487b7100000000000000000000000000000000000000000000000000000000600052603260045260246000fd5b60200260200101516060015181526020018b8481518110620004b7577f4e487b7100000000000000000000000000000000000000000000000000000000600052603260045260246000fd5b60200260200101516080015181526020018b848151811062000502577f4e487b7100000000000000000000000000000000000000000000000000000000600052603260045260246000fd5b602002602001015160a0015181526020018b84815181106200054d577f4e487b7100000000000000000000000000000000000000000000000000000000600052603260045260246000fd5b602002602001015160a0015181526020018b848151811062000598577f4e487b7100000000000000000000000000000000000000000000000000000000600052603260045260246000fd5b602002602001015160c0015181526020018b8481518110620005e3577f4e487b7100000000000000000000000000000000000000000000000000000000600052603260045260246000fd5b602002602001015160e0015181526020018b84815181106200062e577f4e487b7100000000000000000000000000000000000000000000000000000000600052603260045260246000fd5b6020026020010151610100015181525090806001815401808255809150506001900390600052602060002090600b02016000909190919091506000820151816000015560208201518160010190805190602001906200068f92919062000c14565b506040820151816002019080519060200190620006ae92919062000c14565b506060820151816003019080519060200190620006cd92919062000c14565b506080820151816004019080519060200190620006ec92919062000c14565b5060a08201518160050190805190602001906200070b92919062000c14565b5060c0820151816006015560e082015181600701556101008201518160080155610120820151816009015561014082015181600a0155505060006007828154811062000780577f4e487b7100000000000000000000000000000000000000000000000000000000600052603260045260246000fd5b90600052602060002090600b02016040518061016001604052908160008201548152602001600182018054620007b690620012a9565b80601f0160208091040260200160405190810160405280929190818152602001828054620007e490620012a9565b8015620008355780601f10620008095761010080835404028352916020019162000835565b820191906000526020600020905b8154815290600101906020018083116200081757829003601f168201915b505050505081526020016002820180546200085090620012a9565b80601f01602080910402602001604051908101604052809291908181526020018280546200087e90620012a9565b8015620008cf5780601f10620008a357610100808354040283529160200191620008cf565b820191906000526020600020905b815481529060010190602001808311620008b157829003601f168201915b50505050508152602001600382018054620008ea90620012a9565b80601f01602080910402602001604051908101604052809291908181526020018280546200091890620012a9565b8015620009695780601f106200093d5761010080835404028352916020019162000969565b820191906000526020600020905b8154815290600101906020018083116200094b57829003601f168201915b505050505081526020016004820180546200098490620012a9565b80601f0160208091040260200160405190810160405280929190818152602001828054620009b290620012a9565b801562000a035780601f10620009d75761010080835404028352916020019162000a03565b820191906000526020600020905b815481529060010190602001808311620009e557829003601f168201915b5050505050815260200160058201805462000a1e90620012a9565b80601f016020809104026020016040519081016040528092919081815260200182805462000a4c90620012a9565b801562000a9d5780601f1062000a715761010080835404028352916020019162000a9d565b820191906000526020600020905b81548152906001019060200180831162000a7f57829003601f168201915b5050505050815260200160068201548152602001600782015481526020016008820154815260200160098201548152602001600a82015481525050905062000b18604051806060016040528060258152602001620071d56025913982602001518360c00151846040015162000b3f60201b620030891760201c565b5060018162000b2891906200120c565b905062000333565b50505050505050505062001397565b62000be58484848460405160240162000b5c9493929190620010f8565b6040516020818303038152906040527f8d142cdd000000000000000000000000000000000000000000000000000000007bffffffffffffffffffffffffffffffffffffffffffffffffffffffff19166020820180517bffffffffffffffffffffffffffffffffffffffffffffffffffffffff838183161783525050505062000beb60201b60201c565b50505050565b60008151905060006a636f6e736f6c652e6c6f679050602083016000808483855afa5050505050565b82805462000c2290620012a9565b90600052602060002090601f01602090048101928262000c46576000855562000c92565b82601f1062000c6157805160ff191683800117855562000c92565b8280016001018555821562000c92579182015b8281111562000c9157825182559160200191906001019062000c74565b5b50905062000ca1919062000ca5565b5090565b5b8082111562000cc057600081600090555060010162000ca6565b5090565b600062000cdb62000cd5846200118e565b6200115a565b9050808382526020820190508260005b8581101562000d1f578151850162000d04888262000dc8565b84526020840193506020830192505060018101905062000ceb565b5050509392505050565b600062000d4062000d3a84620011bd565b6200115a565b90508281526020810184848401111562000d5957600080fd5b62000d6684828562001273565b509392505050565b600082601f83011262000d8057600080fd5b815162000d9284826020860162000cc4565b91505092915050565b600082601f83011262000dad57600080fd5b815162000dbf84826020860162000d29565b91505092915050565b6000610120828403121562000ddc57600080fd5b62000de96101206200115a565b9050600082015167ffffffffffffffff81111562000e0657600080fd5b62000e148482850162000d9b565b600083015250602082015167ffffffffffffffff81111562000e3557600080fd5b62000e438482850162000d9b565b602083015250604082015167ffffffffffffffff81111562000e6457600080fd5b62000e728482850162000d9b565b604083015250606082015167ffffffffffffffff81111562000e9357600080fd5b62000ea18482850162000d9b565b606083015250608082015167ffffffffffffffff81111562000ec257600080fd5b62000ed08482850162000d9b565b60808301525060a062000ee68482850162000f36565b60a08301525060c062000efc8482850162000f36565b60c08301525060e062000f128482850162000f36565b60e08301525061010062000f298482850162000f36565b6101008301525092915050565b60008151905062000f47816200137d565b92915050565b600080600080600080600080610100898b03121562000f6b57600080fd5b600089015167ffffffffffffffff81111562000f8657600080fd5b62000f948b828c0162000d6e565b985050602089015167ffffffffffffffff81111562000fb257600080fd5b62000fc08b828c0162000d9b565b975050604089015167ffffffffffffffff81111562000fde57600080fd5b62000fec8b828c0162000d9b565b965050606089015167ffffffffffffffff8111156200100a57600080fd5b620010188b828c0162000d9b565b955050608089015167ffffffffffffffff8111156200103657600080fd5b620010448b828c0162000d9b565b94505060a089015167ffffffffffffffff8111156200106257600080fd5b620010708b828c0162000d9b565b93505060c0620010838b828c0162000f36565b92505060e0620010968b828c0162000f36565b9150509295985092959890939650565b6000620010b382620011f0565b620010bf8185620011fb565b9350620010d181856020860162001273565b620010dc816200136c565b840191505092915050565b620010f28162001269565b82525050565b60006080820190508181036000830152620011148187620010a6565b905081810360208301526200112a8186620010a6565b90506200113b6040830185620010e7565b81810360608301526200114f8184620010a6565b905095945050505050565b6000604051905081810181811067ffffffffffffffff821117156200118457620011836200133d565b5b8060405250919050565b600067ffffffffffffffff821115620011ac57620011ab6200133d565b5b602082029050602081019050919050565b600067ffffffffffffffff821115620011db57620011da6200133d565b5b601f19601f8301169050602081019050919050565b600081519050919050565b600082825260208201905092915050565b6000620012198262001269565b9150620012268362001269565b9250827fffffffffffffffffffffffffffffffffffffffffffffffffffffffffffffffff038211156200125e576200125d620012df565b5b828201905092915050565b6000819050919050565b60005b838110156200129357808201518184015260208101905062001276565b83811115620012a3576000848401525b50505050565b60006002820490506001821680620012c257607f821691505b60208210811415620012d957620012d86200130e565b5b50919050565b7f4e487b7100000000000000000000000000000000000000000000000000000000600052601160045260246000fd5b7f4e487b7100000000000000000000000000000000000000000000000000000000600052602260045260246000fd5b7f4e487b7100000000000000000000000000000000000000000000000000000000600052604160045260246000fd5b6000601f19601f8301169050919050565b620013888162001269565b81146200139457600080fd5b50565b615e2e80620013a76000396000f3fe608060405234801561001057600080fd5b506004361061014d5760003560e01c80637df124a1116100c3578063b88d4fde1161007c578063b88d4fde146103b1578063c87b56dd146103cd578063d4f24c5b146103fd578063d85aeb3d14610407578063e985e9c514610425578063f8b81ef7146104555761014d565b80637df124a1146102ca57806383e56dca146102fa57806395d89b411461031857806398da4c9514610336578063a22cb46514610370578063a9c326791461038c5761014d565b8063095ea7b311610115578063095ea7b3146101f857806323b872dd1461021457806342842e0e146102305780634e55cc291461024c5780636352211e1461026a57806370a082311461029a5761014d565b806301ffc9a7146101525780630434fe0b146101825780630665f9611461018c57806306fdde03146101aa578063081812fc146101c8575b600080fd5b61016c6004803603810190610167919061433d565b610471565b604051610179919061539e565b60405180910390f35b61018a610553565b005b610194610698565b6040516101a19190615759565b60405180910390f35b6101b26109ab565b6040516101bf91906153b9565b60405180910390f35b6101e260048036038101906101dd919061438f565b610a3d565b6040516101ef91906152de565b60405180910390f35b610212600480360381019061020d9190614301565b610ac2565b005b61022e600480360381019061022991906141fb565b610bda565b005b61024a600480360381019061024591906141fb565b610c3a565b005b610254610c5a565b604051610261919061577b565b60405180910390f35b610284600480360381019061027f919061438f565b610ffd565b60405161029191906152de565b60405180910390f35b6102b460048036038101906102af9190614196565b6110af565b6040516102c1919061579d565b60405180910390f35b6102e460048036038101906102df9190614196565b611167565b6040516102f1919061579d565b60405180910390f35b61030261117f565b60405161030f919061537c565b60405180910390f35b6103206115bc565b60405161032d91906153b9565b60405180910390f35b610350600480360381019061034b919061438f565b61164e565b6040516103679b9a999897969594939291906157b8565b60405180910390f35b61038a600480360381019061038591906142c5565b611950565b005b610394611ad1565b6040516103a89897969594939291906153db565b60405180910390f35b6103cb60048036038101906103c6919061424a565b611daf565b005b6103e760048036038101906103e2919061438f565b611e11565b6040516103f491906153b9565b60405180910390f35b610405612222565b005b61040f612512565b60405161041c919061537c565b60405180910390f35b61043f600480360381019061043a91906141bf565b612888565b60405161044c919061539e565b60405180910390f35b61046f600480360381019061046a919061438f565b61291c565b005b60007f80ac58cd000000000000000000000000000000000000000000000000000000007bffffffffffffffffffffffffffffffffffffffffffffffffffffffff1916827bffffffffffffffffffffffffffffffffffffffffffffffffffffffff1916148061053c57507f5b5e139f000000000000000000000000000000000000000000000000000000007bffffffffffffffffffffffffffffffffffffffffffffffffffffffff1916827bffffffffffffffffffffffffffffffffffffffffffffffffffffffff1916145b8061054c575061054b8261312b565b5b9050919050565b6000601160003373ffffffffffffffffffffffffffffffffffffffff1673ffffffffffffffffffffffffffffffffffffffff168152602001908152602001600020549050600060086000838152602001908152602001600020905080600701548160060154106105f8576040517f08c379a00000000000000000000000000000000000000000000000000000000081526004016105ef90615739565b60405180910390fd5b80600701548160090154826006015461061191906159b9565b11156106295780600701548160060181905550610649565b806009015481600601600082825461064191906159b9565b925050819055505b7f3faccc4b41f0d66cb9f1893c4dc254e3d7ffa74383fbdde57e41bde31e941f0760096005015482600601548360000154600060405161068c9493929190615886565b60405180910390a15050565b6106a0613f83565b6009604051806101000160405290816000820180546106be90615b84565b80601f01602080910402602001604051908101604052809291908181526020018280546106ea90615b84565b80156107375780601f1061070c57610100808354040283529160200191610737565b820191906000526020600020905b81548152906001019060200180831161071a57829003601f168201915b5050505050815260200160018201805461075090615b84565b80601f016020809104026020016040519081016040528092919081815260200182805461077c90615b84565b80156107c95780601f1061079e576101008083540402835291602001916107c9565b820191906000526020600020905b8154815290600101906020018083116107ac57829003601f168201915b505050505081526020016002820180546107e290615b84565b80601f016020809104026020016040519081016040528092919081815260200182805461080e90615b84565b801561085b5780601f106108305761010080835404028352916020019161085b565b820191906000526020600020905b81548152906001019060200180831161083e57829003601f168201915b5050505050815260200160038201805461087490615b84565b80601f01602080910402602001604051908101604052809291908181526020018280546108a090615b84565b80156108ed5780601f106108c2576101008083540402835291602001916108ed565b820191906000526020600020905b8154815290600101906020018083116108d057829003601f168201915b5050505050815260200160048201805461090690615b84565b80601f016020809104026020016040519081016040528092919081815260200182805461093290615b84565b801561097f5780601f106109545761010080835404028352916020019161097f565b820191906000526020600020905b81548152906001019060200180831161096257829003601f168201915b505050505081526020016005820154815260200160068201548152602001600782015481525050905090565b6060600080546109ba90615b84565b80601f01602080910402602001604051908101604052809291908181526020018280546109e690615b84565b8015610a335780601f10610a0857610100808354040283529160200191610a33565b820191906000526020600020905b815481529060010190602001808311610a1657829003601f168201915b5050505050905090565b6000610a4882613195565b610a87576040517f08c379a0000000000000000000000000000000000000000000000000000000008152600401610a7e906156b9565b60405180910390fd5b6004600083815260200190815260200160002060009054906101000a900473ffffffffffffffffffffffffffffffffffffffff169050919050565b6000610acd82610ffd565b90508073ffffffffffffffffffffffffffffffffffffffff168373ffffffffffffffffffffffffffffffffffffffff161415610b3e576040517f08c379a0000000000000000000000000000000000000000000000000000000008152600401610b35906156f9565b60405180910390fd5b8073ffffffffffffffffffffffffffffffffffffffff16610b5d613201565b73ffffffffffffffffffffffffffffffffffffffff161480610b8c5750610b8b81610b86613201565b612888565b5b610bcb576040517f08c379a0000000000000000000000000000000000000000000000000000000008152600401610bc290615619565b60405180910390fd5b610bd58383613209565b505050565b610beb610be5613201565b826132c2565b610c2a576040517f08c379a0000000000000000000000000000000000000000000000000000000008152600401610c2190615719565b60405180910390fd5b610c358383836133a0565b505050565b610c5583838360405180602001604052806000815250611daf565b505050565b610c62613fc8565b6000601160003373ffffffffffffffffffffffffffffffffffffffff1673ffffffffffffffffffffffffffffffffffffffff1681526020019081526020016000205490506000811115610fec57600860008281526020019081526020016000206040518061016001604052908160008201548152602001600182018054610ce890615b84565b80601f0160208091040260200160405190810160405280929190818152602001828054610d1490615b84565b8015610d615780601f10610d3657610100808354040283529160200191610d61565b820191906000526020600020905b815481529060010190602001808311610d4457829003601f168201915b50505050508152602001600282018054610d7a90615b84565b80601f0160208091040260200160405190810160405280929190818152602001828054610da690615b84565b8015610df35780601f10610dc857610100808354040283529160200191610df3565b820191906000526020600020905b815481529060010190602001808311610dd657829003601f168201915b50505050508152602001600382018054610e0c90615b84565b80601f0160208091040260200160405190810160405280929190818152602001828054610e3890615b84565b8015610e855780601f10610e5a57610100808354040283529160200191610e85565b820191906000526020600020905b815481529060010190602001808311610e6857829003601f168201915b50505050508152602001600482018054610e9e90615b84565b80601f0160208091040260200160405190810160405280929190818152602001828054610eca90615b84565b8015610f175780601f10610eec57610100808354040283529160200191610f17565b820191906000526020600020905b815481529060010190602001808311610efa57829003601f168201915b50505050508152602001600582018054610f3090615b84565b80601f0160208091040260200160405190810160405280929190818152602001828054610f5c90615b84565b8015610fa95780601f10610f7e57610100808354040283529160200191610fa9565b820191906000526020600020905b815481529060010190602001808311610f8c57829003601f168201915b5050505050815260200160068201548152602001600782015481526020016008820154815260200160098201548152602001600a82015481525050915050610ffa565b610ff4613fc8565b80925050505b90565b6000806002600084815260200190815260200160002060009054906101000a900473ffffffffffffffffffffffffffffffffffffffff169050600073ffffffffffffffffffffffffffffffffffffffff168173ffffffffffffffffffffffffffffffffffffffff1614156110a6576040517f08c379a000000000000000000000000000000000000000000000000000000000815260040161109d90615659565b60405180910390fd5b80915050919050565b60008073ffffffffffffffffffffffffffffffffffffffff168273ffffffffffffffffffffffffffffffffffffffff161415611120576040517f08c379a000000000000000000000000000000000000000000000000000000000815260040161111790615639565b60405180910390fd5b600360008373ffffffffffffffffffffffffffffffffffffffff1673ffffffffffffffffffffffffffffffffffffffff168152602001908152602001600020549050919050565b60116020528060005260406000206000915090505481565b6060600061118d60066135fc565b905060008167ffffffffffffffff8111156111d1577f4e487b7100000000000000000000000000000000000000000000000000000000600052604160045260246000fd5b60405190808252806020026020018201604052801561120a57816020015b6111f7613fc8565b8152602001906001900390816111ef5790505b5090506000600190505b8281116115b35760086000828152602001908152602001600020604051806101600160405290816000820154815260200160018201805461125490615b84565b80601f016020809104026020016040519081016040528092919081815260200182805461128090615b84565b80156112cd5780601f106112a2576101008083540402835291602001916112cd565b820191906000526020600020905b8154815290600101906020018083116112b057829003601f168201915b505050505081526020016002820180546112e690615b84565b80601f016020809104026020016040519081016040528092919081815260200182805461131290615b84565b801561135f5780601f106113345761010080835404028352916020019161135f565b820191906000526020600020905b81548152906001019060200180831161134257829003601f168201915b5050505050815260200160038201805461137890615b84565b80601f01602080910402602001604051908101604052809291908181526020018280546113a490615b84565b80156113f15780601f106113c6576101008083540402835291602001916113f1565b820191906000526020600020905b8154815290600101906020018083116113d457829003601f168201915b5050505050815260200160048201805461140a90615b84565b80601f016020809104026020016040519081016040528092919081815260200182805461143690615b84565b80156114835780601f1061145857610100808354040283529160200191611483565b820191906000526020600020905b81548152906001019060200180831161146657829003601f168201915b5050505050815260200160058201805461149c90615b84565b80601f01602080910402602001604051908101604052809291908181526020018280546114c890615b84565b80156115155780601f106114ea57610100808354040283529160200191611515565b820191906000526020600020905b8154815290600101906020018083116114f857829003601f168201915b5050505050815260200160068201548152602001600782015481526020016008820154815260200160098201548152602001600a820154815250508260018361155e9190615a9a565b81518110611595577f4e487b7100000000000000000000000000000000000000000000000000000000600052603260045260246000fd5b602002602001018190525080806115ab90615bb6565b915050611214565b50809250505090565b6060600180546115cb90615b84565b80601f01602080910402602001604051908101604052809291908181526020018280546115f790615b84565b80156116445780601f1061161957610100808354040283529160200191611644565b820191906000526020600020905b81548152906001019060200180831161162757829003601f168201915b5050505050905090565b600860205280600052604060002060009150905080600001549080600101805461167790615b84565b80601f01602080910402602001604051908101604052809291908181526020018280546116a390615b84565b80156116f05780601f106116c5576101008083540402835291602001916116f0565b820191906000526020600020905b8154815290600101906020018083116116d357829003601f168201915b50505050509080600201805461170590615b84565b80601f016020809104026020016040519081016040528092919081815260200182805461173190615b84565b801561177e5780601f106117535761010080835404028352916020019161177e565b820191906000526020600020905b81548152906001019060200180831161176157829003601f168201915b50505050509080600301805461179390615b84565b80601f01602080910402602001604051908101604052809291908181526020018280546117bf90615b84565b801561180c5780601f106117e15761010080835404028352916020019161180c565b820191906000526020600020905b8154815290600101906020018083116117ef57829003601f168201915b50505050509080600401805461182190615b84565b80601f016020809104026020016040519081016040528092919081815260200182805461184d90615b84565b801561189a5780601f1061186f5761010080835404028352916020019161189a565b820191906000526020600020905b81548152906001019060200180831161187d57829003601f168201915b5050505050908060050180546118af90615b84565b80601f01602080910402602001604051908101604052809291908181526020018280546118db90615b84565b80156119285780601f106118fd57610100808354040283529160200191611928565b820191906000526020600020905b81548152906001019060200180831161190b57829003601f168201915b50505050509080600601549080600701549080600801549080600901549080600a015490508b565b611958613201565b73ffffffffffffffffffffffffffffffffffffffff168273ffffffffffffffffffffffffffffffffffffffff1614156119c6576040517f08c379a00000000000000000000000000000000000000000000000000000000081526004016119bd906155d9565b60405180910390fd5b80600560006119d3613201565b73ffffffffffffffffffffffffffffffffffffffff1673ffffffffffffffffffffffffffffffffffffffff16815260200190815260200160002060008473ffffffffffffffffffffffffffffffffffffffff1673ffffffffffffffffffffffffffffffffffffffff16815260200190815260200160002060006101000a81548160ff0219169083151502179055508173ffffffffffffffffffffffffffffffffffffffff16611a80613201565b73ffffffffffffffffffffffffffffffffffffffff167f17307eab39ab6107e8899845ad3d59bd9653f200f220920489ca2b5937696c3183604051611ac5919061539e565b60405180910390a35050565b6009806000018054611ae290615b84565b80601f0160208091040260200160405190810160405280929190818152602001828054611b0e90615b84565b8015611b5b5780601f10611b3057610100808354040283529160200191611b5b565b820191906000526020600020905b815481529060010190602001808311611b3e57829003601f168201915b505050505090806001018054611b7090615b84565b80601f0160208091040260200160405190810160405280929190818152602001828054611b9c90615b84565b8015611be95780601f10611bbe57610100808354040283529160200191611be9565b820191906000526020600020905b815481529060010190602001808311611bcc57829003601f168201915b505050505090806002018054611bfe90615b84565b80601f0160208091040260200160405190810160405280929190818152602001828054611c2a90615b84565b8015611c775780601f10611c4c57610100808354040283529160200191611c77565b820191906000526020600020905b815481529060010190602001808311611c5a57829003601f168201915b505050505090806003018054611c8c90615b84565b80601f0160208091040260200160405190810160405280929190818152602001828054611cb890615b84565b8015611d055780601f10611cda57610100808354040283529160200191611d05565b820191906000526020600020905b815481529060010190602001808311611ce857829003601f168201915b505050505090806004018054611d1a90615b84565b80601f0160208091040260200160405190810160405280929190818152602001828054611d4690615b84565b8015611d935780601f10611d6857610100808354040283529160200191611d93565b820191906000526020600020905b815481529060010190602001808311611d7657829003601f168201915b5050505050908060050154908060060154908060070154905088565b611dc0611dba613201565b836132c2565b611dff576040517f08c379a0000000000000000000000000000000000000000000000000000000008152600401611df690615719565b60405180910390fd5b611e0b8484848461360a565b50505050565b60606000600860008481526020019081526020016000206040518061016001604052908160008201548152602001600182018054611e4e90615b84565b80601f0160208091040260200160405190810160405280929190818152602001828054611e7a90615b84565b8015611ec75780601f10611e9c57610100808354040283529160200191611ec7565b820191906000526020600020905b815481529060010190602001808311611eaa57829003601f168201915b50505050508152602001600282018054611ee090615b84565b80601f0160208091040260200160405190810160405280929190818152602001828054611f0c90615b84565b8015611f595780601f10611f2e57610100808354040283529160200191611f59565b820191906000526020600020905b815481529060010190602001808311611f3c57829003601f168201915b50505050508152602001600382018054611f7290615b84565b80601f0160208091040260200160405190810160405280929190818152602001828054611f9e90615b84565b8015611feb5780601f10611fc057610100808354040283529160200191611feb565b820191906000526020600020905b815481529060010190602001808311611fce57829003601f168201915b5050505050815260200160048201805461200490615b84565b80601f016020809104026020016040519081016040528092919081815260200182805461203090615b84565b801561207d5780601f106120525761010080835404028352916020019161207d565b820191906000526020600020905b81548152906001019060200180831161206057829003601f168201915b5050505050815260200160058201805461209690615b84565b80601f01602080910402602001604051908101604052809291908181526020018280546120c290615b84565b801561210f5780601f106120e45761010080835404028352916020019161210f565b820191906000526020600020905b8154815290600101906020018083116120f257829003601f168201915b5050505050815260200160068201548152602001600782015481526020016008820154815260200160098201548152602001600a820154815250509050600061215b8260c00151613666565b9050600061216c8360e00151613666565b9050600061217e846101000151613666565b90506000612190856101200151613666565b905060006121a2866101400151613666565b905060006121ec87602001516121b78b613666565b896040015189898989896040516020016121d89897969594939291906151bb565b604051602081830303815290604052613813565b90506000816040516020016122019190615290565b60405160208183030381529060405290508098505050505050505050919050565b6000601160003373ffffffffffffffffffffffffffffffffffffffff1673ffffffffffffffffffffffffffffffffffffffff16815260200190815260200160002054905060006008600083815260200190815260200160002090506123556040518060400160405280601b81526020017f426f73732025732068617320257320485020616e642025732041440000000000815250600960000180546122c690615b84565b80601f01602080910402602001604051908101604052809291908181526020018280546122f290615b84565b801561233f5780601f106123145761010080835404028352916020019161233f565b820191906000526020600020905b81548152906001019060200180831161232257829003601f168201915b50505050506009600501546009600701546139d1565b600081600601541161239c576040517f08c379a000000000000000000000000000000000000000000000000000000000815260040161239390615679565b60405180910390fd5b6000600960050154116123e4576040517f08c379a00000000000000000000000000000000000000000000000000000000081526004016123db90615579565b60405180910390fd5b600060019050600082600a01546123f9613a73565b109050801561240757600291505b8183600801546124179190615a40565b600960050154101561243357600060096005018190555061245d565b8183600801546124439190615a40565b6009600501546124539190615a9a565b6009600501819055505b612484604051806060016040528060248152602001615d9560249139600960050154613ab2565b600960070154836006015410156124a457600083600601819055506124c2565b60096007015483600601546124b99190615a9a565b83600601819055505b7f3faccc4b41f0d66cb9f1893c4dc254e3d7ffa74383fbdde57e41bde31e941f0760096005015484600601548560000154846040516125049493929190615886565b60405180910390a150505050565b60606007805480602002602001604051908101604052809291908181526020016000905b8282101561287f57838290600052602060002090600b0201604051806101600160405290816000820154815260200160018201805461257490615b84565b80601f01602080910402602001604051908101604052809291908181526020018280546125a090615b84565b80156125ed5780601f106125c2576101008083540402835291602001916125ed565b820191906000526020600020905b8154815290600101906020018083116125d057829003601f168201915b5050505050815260200160028201805461260690615b84565b80601f016020809104026020016040519081016040528092919081815260200182805461263290615b84565b801561267f5780601f106126545761010080835404028352916020019161267f565b820191906000526020600020905b81548152906001019060200180831161266257829003601f168201915b5050505050815260200160038201805461269890615b84565b80601f01602080910402602001604051908101604052809291908181526020018280546126c490615b84565b80156127115780601f106126e657610100808354040283529160200191612711565b820191906000526020600020905b8154815290600101906020018083116126f457829003601f168201915b5050505050815260200160048201805461272a90615b84565b80601f016020809104026020016040519081016040528092919081815260200182805461275690615b84565b80156127a35780601f10612778576101008083540402835291602001916127a3565b820191906000526020600020905b81548152906001019060200180831161278657829003601f168201915b505050505081526020016005820180546127bc90615b84565b80601f01602080910402602001604051908101604052809291908181526020018280546127e890615b84565b80156128355780601f1061280a57610100808354040283529160200191612835565b820191906000526020600020905b81548152906001019060200180831161281857829003601f168201915b5050505050815260200160068201548152602001600782015481526020016008820154815260200160098201548152602001600a8201548152505081526020019060010190612536565b50505050905090565b6000600560008473ffffffffffffffffffffffffffffffffffffffff1673ffffffffffffffffffffffffffffffffffffffff16815260200190815260200160002060008373ffffffffffffffffffffffffffffffffffffffff1673ffffffffffffffffffffffffffffffffffffffff16815260200190815260200160002060009054906101000a900460ff16905092915050565b6129266006613b4e565b600061293260066135fc565b905061293e3382613b64565b6040518061016001604052808281526020016007848154811061298a577f4e487b7100000000000000000000000000000000000000000000000000000000600052603260045260246000fd5b90600052602060002090600b020160010180546129a690615b84565b80601f01602080910402602001604051908101604052809291908181526020018280546129d290615b84565b8015612a1f5780601f106129f457610100808354040283529160200191612a1f565b820191906000526020600020905b815481529060010190602001808311612a0257829003601f168201915b5050505050815260200160078481548110612a63577f4e487b7100000000000000000000000000000000000000000000000000000000600052603260045260246000fd5b90600052602060002090600b02016002018054612a7f90615b84565b80601f0160208091040260200160405190810160405280929190818152602001828054612aab90615b84565b8015612af85780601f10612acd57610100808354040283529160200191612af8565b820191906000526020600020905b815481529060010190602001808311612adb57829003601f168201915b5050505050815260200160078481548110612b3c577f4e487b7100000000000000000000000000000000000000000000000000000000600052603260045260246000fd5b90600052602060002090600b02016003018054612b5890615b84565b80601f0160208091040260200160405190810160405280929190818152602001828054612b8490615b84565b8015612bd15780601f10612ba657610100808354040283529160200191612bd1565b820191906000526020600020905b815481529060010190602001808311612bb457829003601f168201915b5050505050815260200160078481548110612c15577f4e487b7100000000000000000000000000000000000000000000000000000000600052603260045260246000fd5b90600052602060002090600b02016004018054612c3190615b84565b80601f0160208091040260200160405190810160405280929190818152602001828054612c5d90615b84565b8015612caa5780601f10612c7f57610100808354040283529160200191612caa565b820191906000526020600020905b815481529060010190602001808311612c8d57829003601f168201915b5050505050815260200160078481548110612cee577f4e487b7100000000000000000000000000000000000000000000000000000000600052603260045260246000fd5b90600052602060002090600b02016005018054612d0a90615b84565b80601f0160208091040260200160405190810160405280929190818152602001828054612d3690615b84565b8015612d835780601f10612d5857610100808354040283529160200191612d83565b820191906000526020600020905b815481529060010190602001808311612d6657829003601f168201915b5050505050815260200160078481548110612dc7577f4e487b7100000000000000000000000000000000000000000000000000000000600052603260045260246000fd5b90600052602060002090600b020160060154815260200160078481548110612e18577f4e487b7100000000000000000000000000000000000000000000000000000000600052603260045260246000fd5b90600052602060002090600b020160060154815260200160078481548110612e69577f4e487b7100000000000000000000000000000000000000000000000000000000600052603260045260246000fd5b90600052602060002090600b020160080154815260200160078481548110612eba577f4e487b7100000000000000000000000000000000000000000000000000000000600052603260045260246000fd5b90600052602060002090600b020160090154815260200160078481548110612f0b577f4e487b7100000000000000000000000000000000000000000000000000000000600052603260045260246000fd5b90600052602060002090600b0201600a015481525060086000838152602001908152602001600020600082015181600001556020820151816001019080519060200190612f59929190614022565b506040820151816002019080519060200190612f76929190614022565b506060820151816003019080519060200190612f93929190614022565b506080820151816004019080519060200190612fb0929190614022565b5060a0820151816005019080519060200190612fcd929190614022565b5060c0820151816006015560e082015181600701556101008201518160080155610120820151816009015561014082015181600a015590505080601160003373ffffffffffffffffffffffffffffffffffffffff1673ffffffffffffffffffffffffffffffffffffffff168152602001908152602001600020819055507f4bc303fd457a97b4691b9af582ce71868a3d258638c8d4f8c60988a0f0bfb8cd33828460405161307d93929190615345565b60405180910390a15050565b613125848484846040516024016130a3949392919061547c565b6040516020818303038152906040527f8d142cdd000000000000000000000000000000000000000000000000000000007bffffffffffffffffffffffffffffffffffffffffffffffffffffffff19166020820180517bffffffffffffffffffffffffffffffffffffffffffffffffffffffff8381831617835250505050613b82565b50505050565b60007f01ffc9a7000000000000000000000000000000000000000000000000000000007bffffffffffffffffffffffffffffffffffffffffffffffffffffffff1916827bffffffffffffffffffffffffffffffffffffffffffffffffffffffff1916149050919050565b60008073ffffffffffffffffffffffffffffffffffffffff166002600084815260200190815260200160002060009054906101000a900473ffffffffffffffffffffffffffffffffffffffff1673ffffffffffffffffffffffffffffffffffffffff1614159050919050565b600033905090565b816004600083815260200190815260200160002060006101000a81548173ffffffffffffffffffffffffffffffffffffffff021916908373ffffffffffffffffffffffffffffffffffffffff160217905550808273ffffffffffffffffffffffffffffffffffffffff1661327c83610ffd565b73ffffffffffffffffffffffffffffffffffffffff167f8c5be1e5ebec7d5bd14f71427d1e84f3dd0314c0f7b2291e5b200ac8c7c3b92560405160405180910390a45050565b60006132cd82613195565b61330c576040517f08c379a0000000000000000000000000000000000000000000000000000000008152600401613303906155f9565b60405180910390fd5b600061331783610ffd565b90508073ffffffffffffffffffffffffffffffffffffffff168473ffffffffffffffffffffffffffffffffffffffff16148061338657508373ffffffffffffffffffffffffffffffffffffffff1661336e84610a3d565b73ffffffffffffffffffffffffffffffffffffffff16145b8061339757506133968185612888565b5b91505092915050565b8273ffffffffffffffffffffffffffffffffffffffff166133c082610ffd565b73ffffffffffffffffffffffffffffffffffffffff1614613416576040517f08c379a000000000000000000000000000000000000000000000000000000000815260040161340d906156d9565b60405180910390fd5b600073ffffffffffffffffffffffffffffffffffffffff168273ffffffffffffffffffffffffffffffffffffffff161415613486576040517f08c379a000000000000000000000000000000000000000000000000000000000815260040161347d906155b9565b60405180910390fd5b613491838383613bab565b61349c600082613209565b6001600360008573ffffffffffffffffffffffffffffffffffffffff1673ffffffffffffffffffffffffffffffffffffffff16815260200190815260200160002060008282546134ec9190615a9a565b925050819055506001600360008473ffffffffffffffffffffffffffffffffffffffff1673ffffffffffffffffffffffffffffffffffffffff168152602001908152602001600020600082825461354391906159b9565b92505081905550816002600083815260200190815260200160002060006101000a81548173ffffffffffffffffffffffffffffffffffffffff021916908373ffffffffffffffffffffffffffffffffffffffff160217905550808273ffffffffffffffffffffffffffffffffffffffff168473ffffffffffffffffffffffffffffffffffffffff167fddf252ad1be2c89b69c2b068fc378daa952ba7f163c4a11628f55a4df523b3ef60405160405180910390a4505050565b600081600001549050919050565b6136158484846133a0565b61362184848484613bb0565b613660576040517f08c379a000000000000000000000000000000000000000000000000000000000815260040161365790615559565b60405180910390fd5b50505050565b606060008214156136ae576040518060400160405280600181526020017f3000000000000000000000000000000000000000000000000000000000000000815250905061380e565b600082905060005b600082146136e05780806136c990615bb6565b915050600a826136d99190615a0f565b91506136b6565b60008167ffffffffffffffff811115613722577f4e487b7100000000000000000000000000000000000000000000000000000000600052604160045260246000fd5b6040519080825280601f01601f1916602001820160405280156137545781602001600182028036833780820191505090505b5090505b600085146138075760018261376d9190615a9a565b9150600a8561377c9190615c2d565b603061378891906159b9565b60f81b8183815181106137c4577f4e487b7100000000000000000000000000000000000000000000000000000000600052603260045260246000fd5b60200101907effffffffffffffffffffffffffffffffffffffffffffffffffffffffffffff1916908160001a905350600a856138009190615a0f565b9450613758565b8093505050505b919050565b6060600082519050600081141561383c57604051806020016040528060008152509150506139cc565b6000600360028361384d91906159b9565b6138579190615a0f565b60046138639190615a40565b9050600060208261387491906159b9565b67ffffffffffffffff8111156138b3577f4e487b7100000000000000000000000000000000000000000000000000000000600052604160045260246000fd5b6040519080825280601f01601f1916602001820160405280156138e55781602001600182028036833780820191505090505b5090506000604051806060016040528060408152602001615db9604091399050600181016020830160005b868110156139895760038101905062ffffff818a015116603f8160121c168401518060081b905060ff603f83600c1c1686015116810190508060081b905060ff603f8360061c1686015116810190508060081b905060ff603f831686015116810190508060e01b90508084526004840193505050613910565b5060038606600181146139a357600281146139b3576139be565b613d3d60f01b60028303526139be565b603d60f81b60018303525b508484525050819450505050505b919050565b613a6d848484846040516024016139eb94939291906154d6565b6040516020818303038152906040527fd5cf17d0000000000000000000000000000000000000000000000000000000007bffffffffffffffffffffffffffffffffffffffffffffffffffffffff19166020820180517bffffffffffffffffffffffffffffffffffffffffffffffffffffffff8381831617835250505050613b82565b50505050565b600060644233604051602001613a8a9291906152b2565b6040516020818303038152906040528051906020012060001c613aad9190615c2d565b905090565b613b4a8282604051602401613ac8929190615529565b6040516020818303038152906040527f9710a9d0000000000000000000000000000000000000000000000000000000007bffffffffffffffffffffffffffffffffffffffffffffffffffffffff19166020820180517bffffffffffffffffffffffffffffffffffffffffffffffffffffffff8381831617835250505050613b82565b5050565b6001816000016000828254019250508190555050565b613b7e828260405180602001604052806000815250613d47565b5050565b60008151905060006a636f6e736f6c652e6c6f679050602083016000808483855afa5050505050565b505050565b6000613bd18473ffffffffffffffffffffffffffffffffffffffff16613da2565b15613d3a578373ffffffffffffffffffffffffffffffffffffffff1663150b7a02613bfa613201565b8786866040518563ffffffff1660e01b8152600401613c1c94939291906152f9565b602060405180830381600087803b158015613c3657600080fd5b505af1925050508015613c6757506040513d601f19601f82011682018060405250810190613c649190614366565b60015b613cea573d8060008114613c97576040519150601f19603f3d011682016040523d82523d6000602084013e613c9c565b606091505b50600081511415613ce2576040517f08c379a0000000000000000000000000000000000000000000000000000000008152600401613cd990615559565b60405180910390fd5b805181602001fd5b63150b7a0260e01b7bffffffffffffffffffffffffffffffffffffffffffffffffffffffff1916817bffffffffffffffffffffffffffffffffffffffffffffffffffffffff191614915050613d3f565b600190505b949350505050565b613d518383613db5565b613d5e6000848484613bb0565b613d9d576040517f08c379a0000000000000000000000000000000000000000000000000000000008152600401613d9490615559565b60405180910390fd5b505050565b600080823b905060008111915050919050565b600073ffffffffffffffffffffffffffffffffffffffff168273ffffffffffffffffffffffffffffffffffffffff161415613e25576040517f08c379a0000000000000000000000000000000000000000000000000000000008152600401613e1c90615699565b60405180910390fd5b613e2e81613195565b15613e6e576040517f08c379a0000000000000000000000000000000000000000000000000000000008152600401613e6590615599565b60405180910390fd5b613e7a60008383613bab565b6001600360008473ffffffffffffffffffffffffffffffffffffffff1673ffffffffffffffffffffffffffffffffffffffff1681526020019081526020016000206000828254613eca91906159b9565b92505081905550816002600083815260200190815260200160002060006101000a81548173ffffffffffffffffffffffffffffffffffffffff021916908373ffffffffffffffffffffffffffffffffffffffff160217905550808273ffffffffffffffffffffffffffffffffffffffff16600073ffffffffffffffffffffffffffffffffffffffff167fddf252ad1be2c89b69c2b068fc378daa952ba7f163c4a11628f55a4df523b3ef60405160405180910390a45050565b60405180610100016040528060608152602001606081526020016060815260200160608152602001606081526020016000815260200160008152602001600081525090565b60405180610160016040528060008152602001606081526020016060815260200160608152602001606081526020016060815260200160008152602001600081526020016000815260200160008152602001600081525090565b82805461402e90615b84565b90600052602060002090601f0160209004810192826140505760008555614097565b82601f1061406957805160ff1916838001178555614097565b82800160010185558215614097579182015b8281111561409657825182559160200191906001019061407b565b5b5090506140a491906140a8565b5090565b5b808211156140c15760008160009055506001016140a9565b5090565b60006140d86140d3846158fc565b6158cb565b9050828152602081018484840111156140f057600080fd5b6140fb848285615b42565b509392505050565b60008135905061411281615d38565b92915050565b60008135905061412781615d4f565b92915050565b60008135905061413c81615d66565b92915050565b60008151905061415181615d66565b92915050565b600082601f83011261416857600080fd5b81356141788482602086016140c5565b91505092915050565b60008135905061419081615d7d565b92915050565b6000602082840312156141a857600080fd5b60006141b684828501614103565b91505092915050565b600080604083850312156141d257600080fd5b60006141e085828601614103565b92505060206141f185828601614103565b9150509250929050565b60008060006060848603121561421057600080fd5b600061421e86828701614103565b935050602061422f86828701614103565b925050604061424086828701614181565b9150509250925092565b6000806000806080858703121561426057600080fd5b600061426e87828801614103565b945050602061427f87828801614103565b935050604061429087828801614181565b925050606085013567ffffffffffffffff8111156142ad57600080fd5b6142b987828801614157565b91505092959194509250565b600080604083850312156142d857600080fd5b60006142e685828601614103565b92505060206142f785828601614118565b9150509250929050565b6000806040838503121561431457600080fd5b600061432285828601614103565b925050602061433385828601614181565b9150509250929050565b60006020828403121561434f57600080fd5b600061435d8482850161412d565b91505092915050565b60006020828403121561437857600080fd5b600061438684828501614142565b91505092915050565b6000602082840312156143a157600080fd5b60006143af84828501614181565b91505092915050565b60006143c48383614f70565b905092915050565b6143d581615ace565b82525050565b6143ec6143e782615ace565b615bff565b82525050565b60006143fd8261593c565b614407818561596a565b9350836020820285016144198561592c565b8060005b85811015614455578484038952815161443685826143b8565b94506144418361595d565b925060208a0199505060018101905061441d565b50829750879550505050505092915050565b61447081615ae0565b82525050565b600061448182615947565b61448b818561597b565b935061449b818560208601615b51565b6144a481615d1a565b840191505092915050565b60006144ba82615952565b6144c4818561598c565b93506144d4818560208601615b51565b6144dd81615d1a565b840191505092915050565b60006144f382615952565b6144fd818561599d565b935061450d818560208601615b51565b61451681615d1a565b840191505092915050565b600061452c82615952565b61453681856159ae565b9350614546818560208601615b51565b80840191505092915050565b600061455f600b836159ae565b91507f202d2d204e465420233a200000000000000000000000000000000000000000006000830152600b82019050919050565b600061459f60328361599d565b91507f4552433732313a207472616e7366657220746f206e6f6e20455243373231526560008301527f63656976657220696d706c656d656e74657200000000000000000000000000006020830152604082019050919050565b6000614605602f836159ae565b91507f7d2c207b202274726169745f74797065223a2022437269746963616c2063686160008301527f6e6365222c202276616c7565223a2000000000000000000000000000000000006020830152602f82019050919050565b600061466b60288361599d565b91507f4572726f723a20626f7373206d757374206861766520485020746f206174746160008301527f636b20626f73732e0000000000000000000000000000000000000000000000006020830152604082019050919050565b60006146d1601c8361599d565b91507f4552433732313a20746f6b656e20616c7265616479206d696e746564000000006000830152602082019050919050565b6000614711600e836159ae565b91507f2c20226d61785f76616c7565223a0000000000000000000000000000000000006000830152600e82019050919050565b600061475160248361599d565b91507f4552433732313a207472616e7366657220746f20746865207a65726f2061646460008301527f72657373000000000000000000000000000000000000000000000000000000006020830152604082019050919050565b60006147b760198361599d565b91507f4552433732313a20617070726f766520746f2063616c6c6572000000000000006000830152602082019050919050565b60006147f7602c8361599d565b91507f4552433732313a206f70657261746f7220717565727920666f72206e6f6e657860008301527f697374656e7420746f6b656e00000000000000000000000000000000000000006020830152604082019050919050565b600061485d60388361599d565b91507f4552433732313a20617070726f76652063616c6c6572206973206e6f74206f7760008301527f6e6572206e6f7220617070726f76656420666f7220616c6c00000000000000006020830152604082019050919050565b60006148c3602a8361599d565b91507f4552433732313a2062616c616e636520717565727920666f7220746865207a6560008301527f726f2061646472657373000000000000000000000000000000000000000000006020830152604082019050919050565b600061492960298361599d565b91507f4552433732313a206f776e657220717565727920666f72206e6f6e657869737460008301527f656e7420746f6b656e00000000000000000000000000000000000000000000006020830152604082019050919050565b600061498f6062836159ae565b91507f222c20226465736372697074696f6e223a20225468697320697320616e204e4660008301527f542074686174206c6574732070656f706c6520706c617920696e20746865206760208301527f616d65204d657461766572736520536c6179657221222c2022696d616765223a60408301527f20220000000000000000000000000000000000000000000000000000000000006060830152606282019050919050565b6000614a41602d8361599d565b91507f4572726f723a20636861726163746572206d757374206861766520485020746f60008301527f2061747461636b20626f73732e000000000000000000000000000000000000006020830152604082019050919050565b6000614aa76004836159ae565b91507f7d205d7d000000000000000000000000000000000000000000000000000000006000830152600482019050919050565b6000614ae760208361599d565b91507f4552433732313a206d696e7420746f20746865207a65726f20616464726573736000830152602082019050919050565b6000614b27602c8361599d565b91507f4552433732313a20617070726f76656420717565727920666f72206e6f6e657860008301527f697374656e7420746f6b656e00000000000000000000000000000000000000006020830152604082019050919050565b6000614b8d60298361599d565b91507f4552433732313a207472616e73666572206f6620746f6b656e2074686174206960008301527f73206e6f74206f776e00000000000000000000000000000000000000000000006020830152604082019050919050565b6000614bf3600a836159ae565b91507f7b226e616d65223a2022000000000000000000000000000000000000000000006000830152600a82019050919050565b6000614c3360218361599d565b91507f4552433732313a20617070726f76616c20746f2063757272656e74206f776e6560008301527f72000000000000000000000000000000000000000000000000000000000000006020830152604082019050919050565b6000614c99601d836159ae565b91507f646174613a6170706c69636174696f6e2f6a736f6e3b6261736536342c0000006000830152601d82019050919050565b6000614cd960318361599d565b91507f4552433732313a207472616e736665722063616c6c6572206973206e6f74206f60008301527f776e6572206e6f7220617070726f7665640000000000000000000000000000006020830152604082019050919050565b6000614d3f600f8361599d565b91507f596f75722068702069732066756c6c00000000000000000000000000000000006000830152602082019050919050565b6000614d7f603d836159ae565b91507f222c202261747472696275746573223a205b207b202274726169745f7479706560008301527f223a20224865616c746820506f696e7473222c202276616c7565223a200000006020830152603d82019050919050565b6000614de5602d836159ae565b91507f7d2c207b202274726169745f74797065223a202241747461636b2044616d616760008301527f65222c202276616c7565223a20000000000000000000000000000000000000006020830152602d82019050919050565b6000614e4b602b836159ae565b91507f7d2c207b202274726169745f74797065223a20224865616c20416d6f756e742260008301527f2c202276616c7565223a200000000000000000000000000000000000000000006020830152602b82019050919050565b6000610100830160008301518482036000860152614ec282826144af565b91505060208301518482036020860152614edc82826144af565b91505060408301518482036040860152614ef682826144af565b91505060608301518482036060860152614f1082826144af565b91505060808301518482036080860152614f2a82826144af565b91505060a0830151614f3f60a0860182615186565b5060c0830151614f5260c0860182615186565b5060e0830151614f6560e0860182615186565b508091505092915050565b600061016083016000830151614f896000860182615186565b5060208301518482036020860152614fa182826144af565b91505060408301518482036040860152614fbb82826144af565b91505060608301518482036060860152614fd582826144af565b91505060808301518482036080860152614fef82826144af565b91505060a083015184820360a086015261500982826144af565b91505060c083015161501e60c0860182615186565b5060e083015161503160e0860182615186565b50610100830151615046610100860182615186565b5061012083015161505b610120860182615186565b50610140830151615070610140860182615186565b508091505092915050565b6000610160830160008301516150946000860182615186565b50602083015184820360208601526150ac82826144af565b915050604083015184820360408601526150c682826144af565b915050606083015184820360608601526150e082826144af565b915050608083015184820360808601526150fa82826144af565b91505060a083015184820360a086015261511482826144af565b91505060c083015161512960c0860182615186565b5060e083015161513c60e0860182615186565b50610100830151615151610100860182615186565b50610120830151615166610120860182615186565b5061014083015161517b610140860182615186565b508091505092915050565b61518f81615b38565b82525050565b61519e81615b38565b82525050565b6151b56151b082615b38565b615c23565b82525050565b60006151c682614be6565b91506151d2828b614521565b91506151dd82614552565b91506151e9828a614521565b91506151f482614982565b91506152008289614521565b915061520b82614d72565b91506152178288614521565b915061522282614704565b915061522e8287614521565b915061523982614dd8565b91506152458286614521565b915061525082614e3e565b915061525c8285614521565b9150615267826145f8565b91506152738284614521565b915061527e82614a9a565b91508190509998505050505050505050565b600061529b82614c8c565b91506152a78284614521565b915081905092915050565b60006152be82856151a4565b6020820191506152ce82846143db565b6014820191508190509392505050565b60006020820190506152f360008301846143cc565b92915050565b600060808201905061530e60008301876143cc565b61531b60208301866143cc565b6153286040830185615195565b818103606083015261533a8184614476565b905095945050505050565b600060608201905061535a60008301866143cc565b6153676020830185615195565b6153746040830184615195565b949350505050565b6000602082019050818103600083015261539681846143f2565b905092915050565b60006020820190506153b36000830184614467565b92915050565b600060208201905081810360008301526153d381846144e8565b905092915050565b60006101008201905081810360008301526153f6818b6144e8565b9050818103602083015261540a818a6144e8565b9050818103604083015261541e81896144e8565b9050818103606083015261543281886144e8565b9050818103608083015261544681876144e8565b905061545560a0830186615195565b61546260c0830185615195565b61546f60e0830184615195565b9998505050505050505050565b6000608082019050818103600083015261549681876144e8565b905081810360208301526154aa81866144e8565b90506154b96040830185615195565b81810360608301526154cb81846144e8565b905095945050505050565b600060808201905081810360008301526154f081876144e8565b9050818103602083015261550481866144e8565b90506155136040830185615195565b6155206060830184615195565b95945050505050565b6000604082019050818103600083015261554381856144e8565b90506155526020830184615195565b9392505050565b6000602082019050818103600083015261557281614592565b9050919050565b600060208201905081810360008301526155928161465e565b9050919050565b600060208201905081810360008301526155b2816146c4565b9050919050565b600060208201905081810360008301526155d281614744565b9050919050565b600060208201905081810360008301526155f2816147aa565b9050919050565b60006020820190508181036000830152615612816147ea565b9050919050565b6000602082019050818103600083015261563281614850565b9050919050565b60006020820190508181036000830152615652816148b6565b9050919050565b600060208201905081810360008301526156728161491c565b9050919050565b6000602082019050818103600083015261569281614a34565b9050919050565b600060208201905081810360008301526156b281614ada565b9050919050565b600060208201905081810360008301526156d281614b1a565b9050919050565b600060208201905081810360008301526156f281614b80565b9050919050565b6000602082019050818103600083015261571281614c26565b9050919050565b6000602082019050818103600083015261573281614ccc565b9050919050565b6000602082019050818103600083015261575281614d32565b9050919050565b600060208201905081810360008301526157738184614ea4565b905092915050565b60006020820190508181036000830152615795818461507b565b905092915050565b60006020820190506157b26000830184615195565b92915050565b6000610160820190506157ce600083018e615195565b81810360208301526157e0818d6144e8565b905081810360408301526157f4818c6144e8565b90508181036060830152615808818b6144e8565b9050818103608083015261581c818a6144e8565b905081810360a083015261583081896144e8565b905061583f60c0830188615195565b61584c60e0830187615195565b61585a610100830186615195565b615868610120830185615195565b615876610140830184615195565b9c9b505050505050505050505050565b600060808201905061589b6000830187615195565b6158a86020830186615195565b6158b56040830185615195565b6158c26060830184614467565b95945050505050565b6000604051905081810181811067ffffffffffffffff821117156158f2576158f1615ceb565b5b8060405250919050565b600067ffffffffffffffff82111561591757615916615ceb565b5b601f19601f8301169050602081019050919050565b6000819050602082019050919050565b600081519050919050565b600081519050919050565b600081519050919050565b6000602082019050919050565b600082825260208201905092915050565b600082825260208201905092915050565b600082825260208201905092915050565b600082825260208201905092915050565b600081905092915050565b60006159c482615b38565b91506159cf83615b38565b9250827fffffffffffffffffffffffffffffffffffffffffffffffffffffffffffffffff03821115615a0457615a03615c5e565b5b828201905092915050565b6000615a1a82615b38565b9150615a2583615b38565b925082615a3557615a34615c8d565b5b828204905092915050565b6000615a4b82615b38565b9150615a5683615b38565b9250817fffffffffffffffffffffffffffffffffffffffffffffffffffffffffffffffff0483118215151615615a8f57615a8e615c5e565b5b828202905092915050565b6000615aa582615b38565b9150615ab083615b38565b925082821015615ac357615ac2615c5e565b5b828203905092915050565b6000615ad982615b18565b9050919050565b60008115159050919050565b60007fffffffff0000000000000000000000000000000000000000000000000000000082169050919050565b600073ffffffffffffffffffffffffffffffffffffffff82169050919050565b6000819050919050565b82818337600083830152505050565b60005b83811015615b6f578082015181840152602081019050615b54565b83811115615b7e576000848401525b50505050565b60006002820490506001821680615b9c57607f821691505b60208210811415615bb057615baf615cbc565b5b50919050565b6000615bc182615b38565b91507fffffffffffffffffffffffffffffffffffffffffffffffffffffffffffffffff821415615bf457615bf3615c5e565b5b600182019050919050565b6000615c0a82615c11565b9050919050565b6000615c1c82615d2b565b9050919050565b6000819050919050565b6000615c3882615b38565b9150615c4383615b38565b925082615c5357615c52615c8d565b5b828206905092915050565b7f4e487b7100000000000000000000000000000000000000000000000000000000600052601160045260246000fd5b7f4e487b7100000000000000000000000000000000000000000000000000000000600052601260045260246000fd5b7f4e487b7100000000000000000000000000000000000000000000000000000000600052602260045260246000fd5b7f4e487b7100000000000000000000000000000000000000000000000000000000600052604160045260246000fd5b6000601f19601f8301169050919050565b60008160601b9050919050565b615d4181615ace565b8114615d4c57600080fd5b50565b615d5881615ae0565b8114615d6357600080fd5b50565b615d6f81615aec565b8114615d7a57600080fd5b50565b615d8681615b38565b8114615d9157600080fd5b5056fe506c617965722061747461636b656420626f73732e204e657720626f73732068702025734142434445464748494a4b4c4d4e4f505152535455565758595a6162636465666768696a6b6c6d6e6f707172737475767778797a303132333435363738392b2fa26469706673582212204db9b08908db6eae57415138fdfadfb83cae7b5539e441b916b8a0acf43203fa64736f6c63430008000033446f6e6520696e697469616c697a696e6720257320772f2048502025732c20696d67202573446f6e6520696e697469616c697a696e6720626f737320257320772f2048502025732c20696d67202573",
	"linkReferences": {},
	"deployedLinkReferences": {}
}